{
  "contractName": "ERC20Token",
  "abi": [
    {
      "inputs": [
        {
          "internalType": "string",
          "name": "_name",
          "type": "string"
        },
        {
          "internalType": "string",
          "name": "_symbol",
          "type": "string"
        },
        {
          "internalType": "uint256",
          "name": "_decimals",
          "type": "uint256"
        },
        {
          "internalType": "uint256",
          "name": "_supply",
          "type": "uint256"
        },
        {
          "internalType": "address",
          "name": "tokenOwner",
          "type": "address"
        }
      ],
      "stateMutability": "nonpayable",
      "type": "constructor"
    },
    {
      "anonymous": false,
      "inputs": [
        {
          "indexed": true,
          "internalType": "address",
          "name": "tokenOwner",
          "type": "address"
        },
        {
          "indexed": true,
          "internalType": "address",
          "name": "spender",
          "type": "address"
        },
        {
          "indexed": false,
          "internalType": "uint256",
          "name": "tokens",
          "type": "uint256"
        }
      ],
      "name": "Approval",
      "type": "event"
    },
    {
      "anonymous": false,
      "inputs": [
        {
          "indexed": true,
          "internalType": "address",
          "name": "from",
          "type": "address"
        },
        {
          "indexed": true,
          "internalType": "address",
          "name": "to",
          "type": "address"
        },
        {
          "indexed": false,
          "internalType": "uint256",
          "name": "tokens",
          "type": "uint256"
        }
      ],
      "name": "Transfer",
      "type": "event"
    },
    {
      "inputs": [
        {
          "internalType": "address",
          "name": "",
          "type": "address"
        }
      ],
      "name": "balances",
      "outputs": [
        {
          "internalType": "uint256",
          "name": "",
          "type": "uint256"
        }
      ],
      "stateMutability": "view",
      "type": "function"
    },
    {
      "inputs": [],
      "name": "decimals",
      "outputs": [
        {
          "internalType": "uint256",
          "name": "",
          "type": "uint256"
        }
      ],
      "stateMutability": "view",
      "type": "function"
    },
    {
      "inputs": [],
      "name": "founder",
      "outputs": [
        {
          "internalType": "address",
          "name": "",
          "type": "address"
        }
      ],
      "stateMutability": "view",
      "type": "function"
    },
    {
      "inputs": [],
      "name": "name",
      "outputs": [
        {
          "internalType": "string",
          "name": "",
          "type": "string"
        }
      ],
      "stateMutability": "view",
      "type": "function"
    },
    {
      "inputs": [],
      "name": "supply",
      "outputs": [
        {
          "internalType": "uint256",
          "name": "",
          "type": "uint256"
        }
      ],
      "stateMutability": "view",
      "type": "function"
    },
    {
      "inputs": [],
      "name": "symbol",
      "outputs": [
        {
          "internalType": "string",
          "name": "",
          "type": "string"
        }
      ],
      "stateMutability": "view",
      "type": "function"
    },
    {
      "inputs": [
        {
          "internalType": "address",
          "name": "tokenOwner",
          "type": "address"
        },
        {
          "internalType": "address",
          "name": "spender",
          "type": "address"
        }
      ],
      "name": "allowance",
      "outputs": [
        {
          "internalType": "uint256",
          "name": "remaining",
          "type": "uint256"
        }
      ],
      "stateMutability": "view",
      "type": "function"
    },
    {
      "inputs": [
        {
          "internalType": "address",
          "name": "spender",
          "type": "address"
        },
        {
          "internalType": "uint256",
          "name": "tokens",
          "type": "uint256"
        }
      ],
      "name": "approve",
      "outputs": [
        {
          "internalType": "bool",
          "name": "success",
          "type": "bool"
        }
      ],
      "stateMutability": "nonpayable",
      "type": "function"
    },
    {
      "inputs": [
        {
          "internalType": "address",
          "name": "from",
          "type": "address"
        },
        {
          "internalType": "address",
          "name": "to",
          "type": "address"
        },
        {
          "internalType": "uint256",
          "name": "tokens",
          "type": "uint256"
        }
      ],
      "name": "transferFrom",
      "outputs": [
        {
          "internalType": "bool",
          "name": "success",
          "type": "bool"
        }
      ],
      "stateMutability": "nonpayable",
      "type": "function"
    },
    {
      "inputs": [],
      "name": "totalSupply",
      "outputs": [
        {
          "internalType": "uint256",
          "name": "",
          "type": "uint256"
        }
      ],
      "stateMutability": "view",
      "type": "function"
    },
    {
      "inputs": [
        {
          "internalType": "address",
          "name": "tokenOwner",
          "type": "address"
        }
      ],
      "name": "balanceOf",
      "outputs": [
        {
          "internalType": "uint256",
          "name": "balance",
          "type": "uint256"
        }
      ],
      "stateMutability": "view",
      "type": "function"
    },
    {
      "inputs": [
        {
          "internalType": "address",
          "name": "to",
          "type": "address"
        },
        {
          "internalType": "uint256",
          "name": "tokens",
          "type": "uint256"
        }
      ],
      "name": "transfer",
      "outputs": [
        {
          "internalType": "bool",
          "name": "success",
          "type": "bool"
        }
      ],
      "stateMutability": "nonpayable",
      "type": "function"
    }
  ],
  "bytecode": "0x60806040523480156200001157600080fd5b50604051620015ee380380620015ee833981810160405281019062000037919062000296565b84600090805190602001906200004f92919062000146565b5083600190805190602001906200006892919062000146565b508260028190555082600a6200007f91906200040c565b826200008c919062000549565b60038190555080600460006101000a81548173ffffffffffffffffffffffffffffffffffffffff021916908373ffffffffffffffffffffffffffffffffffffffff16021790555060035460056000600460009054906101000a900473ffffffffffffffffffffffffffffffffffffffff1673ffffffffffffffffffffffffffffffffffffffff1673ffffffffffffffffffffffffffffffffffffffff16815260200190815260200160002081905550505050505062000722565b82805462000154906200061e565b90600052602060002090601f016020900481019282620001785760008555620001c4565b82601f106200019357805160ff1916838001178555620001c4565b82800160010185558215620001c4579182015b82811115620001c3578251825591602001919060010190620001a6565b5b509050620001d39190620001d7565b5090565b5b80821115620001f2576000816000905550600101620001d8565b5090565b60006200020d62000207846200037e565b6200034a565b9050828152602081018484840111156200022657600080fd5b62000233848285620005e8565b509392505050565b6000815190506200024c81620006ee565b92915050565b600082601f8301126200026457600080fd5b815162000276848260208601620001f6565b91505092915050565b600081519050620002908162000708565b92915050565b600080600080600060a08688031215620002af57600080fd5b600086015167ffffffffffffffff811115620002ca57600080fd5b620002d88882890162000252565b955050602086015167ffffffffffffffff811115620002f657600080fd5b620003048882890162000252565b945050604062000317888289016200027f565b93505060606200032a888289016200027f565b92505060806200033d888289016200023b565b9150509295509295909350565b6000604051905081810181811067ffffffffffffffff82111715620003745762000373620006b2565b5b8060405250919050565b600067ffffffffffffffff8211156200039c576200039b620006b2565b5b601f19601f8301169050602081019050919050565b6000808291508390505b60018511156200040357808604811115620003db57620003da62000654565b5b6001851615620003eb5780820291505b8081029050620003fb85620006e1565b9450620003bb565b94509492505050565b60006200041982620005de565b91506200042683620005de565b9250620004557fffffffffffffffffffffffffffffffffffffffffffffffffffffffffffffffff84846200045d565b905092915050565b6000826200046f576001905062000542565b816200047f576000905062000542565b8160018114620004985760028114620004a357620004d9565b600191505062000542565b60ff841115620004b857620004b762000654565b5b8360020a915084821115620004d257620004d162000654565b5b5062000542565b5060208310610133831016604e8410600b8410161715620005135782820a9050838111156200050d576200050c62000654565b5b62000542565b620005228484846001620003b1565b925090508184048111156200053c576200053b62000654565b5b81810290505b9392505050565b60006200055682620005de565b91506200056383620005de565b9250817fffffffffffffffffffffffffffffffffffffffffffffffffffffffffffffffff04831182151516156200059f576200059e62000654565b5b828202905092915050565b6000620005b782620005be565b9050919050565b600073ffffffffffffffffffffffffffffffffffffffff82169050919050565b6000819050919050565b60005b8381101562000608578082015181840152602081019050620005eb565b8381111562000618576000848401525b50505050565b600060028204905060018216806200063757607f821691505b602082108114156200064e576200064d62000683565b5b50919050565b7f4e487b7100000000000000000000000000000000000000000000000000000000600052601160045260246000fd5b7f4e487b7100000000000000000000000000000000000000000000000000000000600052602260045260246000fd5b7f4e487b7100000000000000000000000000000000000000000000000000000000600052604160045260246000fd5b60008160011c9050919050565b620006f981620005aa565b81146200070557600080fd5b50565b6200071381620005de565b81146200071f57600080fd5b50565b610ebc80620007326000396000f3fe608060405234801561001057600080fd5b50600436106100b45760003560e01c8063313ce56711610071578063313ce567146101a35780634d853ee5146101c157806370a08231146101df57806395d89b411461020f578063a9059cbb1461022d578063dd62ed3e1461025d576100b4565b8063047fc9aa146100b957806306fdde03146100d7578063095ea7b3146100f557806318160ddd1461012557806323b872dd1461014357806327e235e314610173575b600080fd5b6100c161028d565b6040516100ce9190610c7b565b60405180910390f35b6100df610293565b6040516100ec9190610bf9565b60405180910390f35b61010f600480360381019061010a9190610a61565b610321565b60405161011c9190610bde565b60405180910390f35b61012d6104d8565b60405161013a9190610c7b565b60405180910390f35b61015d60048036038101906101589190610a12565b6104e2565b60405161016a9190610bde565b60405180910390f35b61018d600480360381019061018891906109ad565b610682565b60405161019a9190610c7b565b60405180910390f35b6101ab61069a565b6040516101b89190610c7b565b60405180910390f35b6101c96106a0565b6040516101d69190610bc3565b60405180910390f35b6101f960048036038101906101f491906109ad565b6106c6565b6040516102069190610c7b565b60405180910390f35b61021761070f565b6040516102249190610bf9565b60405180910390f35b61024760048036038101906102429190610a61565b61079d565b6040516102549190610bde565b60405180910390f35b610277600480360381019061027291906109d6565b6108fc565b6040516102849190610c7b565b60405180910390f35b60035481565b600080546102a090610db7565b80601f01602080910402602001604051908101604052809291908181526020018280546102cc90610db7565b80156103195780601f106102ee57610100808354040283529160200191610319565b820191906000526020600020905b8154815290600101906020018083116102fc57829003601f168201915b505050505081565b600081600560003373ffffffffffffffffffffffffffffffffffffffff1673ffffffffffffffffffffffffffffffffffffffff1681526020019081526020016000205410156103a5576040517f08c379a000000000000000000000000000000000000000000000000000000000815260040161039c90610c3b565b60405180910390fd5b600082116103e8576040517f08c379a00000000000000000000000000000000000000000000000000000000081526004016103df90610c5b565b60405180910390fd5b81600660003373ffffffffffffffffffffffffffffffffffffffff1673ffffffffffffffffffffffffffffffffffffffff16815260200190815260200160002060008573ffffffffffffffffffffffffffffffffffffffff1673ffffffffffffffffffffffffffffffffffffffff168152602001908152602001600020819055508273ffffffffffffffffffffffffffffffffffffffff163373ffffffffffffffffffffffffffffffffffffffff167f8c5be1e5ebec7d5bd14f71427d1e84f3dd0314c0f7b2291e5b200ac8c7c3b925846040516104c69190610c7b565b60405180910390a36001905092915050565b6000600354905090565b600081600560008673ffffffffffffffffffffffffffffffffffffffff1673ffffffffffffffffffffffffffffffffffffffff168152602001908152602001600020541015610566576040517f08c379a000000000000000000000000000000000000000000000000000000000815260040161055d90610c3b565b60405180910390fd5b81600560008673ffffffffffffffffffffffffffffffffffffffff1673ffffffffffffffffffffffffffffffffffffffff16815260200190815260200160002060008282546105b59190610d08565b9250508190555081600560008573ffffffffffffffffffffffffffffffffffffffff1673ffffffffffffffffffffffffffffffffffffffff168152602001908152602001600020600082825461060b9190610cb2565b925050819055508273ffffffffffffffffffffffffffffffffffffffff168473ffffffffffffffffffffffffffffffffffffffff167fddf252ad1be2c89b69c2b068fc378daa952ba7f163c4a11628f55a4df523b3ef8460405161066f9190610c7b565b60405180910390a3600190509392505050565b60056020528060005260406000206000915090505481565b60025481565b600460009054906101000a900473ffffffffffffffffffffffffffffffffffffffff1681565b6000600560008373ffffffffffffffffffffffffffffffffffffffff1673ffffffffffffffffffffffffffffffffffffffff168152602001908152602001600020549050919050565b6001805461071c90610db7565b80601f016020809104026020016040519081016040528092919081815260200182805461074890610db7565b80156107955780601f1061076a57610100808354040283529160200191610795565b820191906000526020600020905b81548152906001019060200180831161077857829003601f168201915b505050505081565b60008082116107e1576040517f08c379a00000000000000000000000000000000000000000000000000000000081526004016107d890610c1b565b60405180910390fd5b81600560008573ffffffffffffffffffffffffffffffffffffffff1673ffffffffffffffffffffffffffffffffffffffff16815260200190815260200160002060008282546108309190610cb2565b9250508190555081600560003373ffffffffffffffffffffffffffffffffffffffff1673ffffffffffffffffffffffffffffffffffffffff16815260200190815260200160002060008282546108869190610d08565b925050819055508273ffffffffffffffffffffffffffffffffffffffff163373ffffffffffffffffffffffffffffffffffffffff167fddf252ad1be2c89b69c2b068fc378daa952ba7f163c4a11628f55a4df523b3ef846040516108ea9190610c7b565b60405180910390a36001905092915050565b6000600660008473ffffffffffffffffffffffffffffffffffffffff1673ffffffffffffffffffffffffffffffffffffffff16815260200190815260200160002060008373ffffffffffffffffffffffffffffffffffffffff1673ffffffffffffffffffffffffffffffffffffffff16815260200190815260200160002054905092915050565b60008135905061099281610e58565b92915050565b6000813590506109a781610e6f565b92915050565b6000602082840312156109bf57600080fd5b60006109cd84828501610983565b91505092915050565b600080604083850312156109e957600080fd5b60006109f785828601610983565b9250506020610a0885828601610983565b9150509250929050565b600080600060608486031215610a2757600080fd5b6000610a3586828701610983565b9350506020610a4686828701610983565b9250506040610a5786828701610998565b9150509250925092565b60008060408385031215610a7457600080fd5b6000610a8285828601610983565b9250506020610a9385828601610998565b9150509250929050565b610aa681610d3c565b82525050565b610ab581610d4e565b82525050565b6000610ac682610c96565b610ad08185610ca1565b9350610ae0818560208601610d84565b610ae981610e47565b840191505092915050565b6000610b01600b83610ca1565b91507f746f6b656e203c3d2030200000000000000000000000000000000000000000006000830152602082019050919050565b6000610b41601283610ca1565b91507f4e6f7420656e6f7567682062616c616e636500000000000000000000000000006000830152602082019050919050565b6000610b81600b83610ca1565b91507f546f6b656e73203c3d20300000000000000000000000000000000000000000006000830152602082019050919050565b610bbd81610d7a565b82525050565b6000602082019050610bd86000830184610a9d565b92915050565b6000602082019050610bf36000830184610aac565b92915050565b60006020820190508181036000830152610c138184610abb565b905092915050565b60006020820190508181036000830152610c3481610af4565b9050919050565b60006020820190508181036000830152610c5481610b34565b9050919050565b60006020820190508181036000830152610c7481610b74565b9050919050565b6000602082019050610c906000830184610bb4565b92915050565b600081519050919050565b600082825260208201905092915050565b6000610cbd82610d7a565b9150610cc883610d7a565b9250827fffffffffffffffffffffffffffffffffffffffffffffffffffffffffffffffff03821115610cfd57610cfc610de9565b5b828201905092915050565b6000610d1382610d7a565b9150610d1e83610d7a565b925082821015610d3157610d30610de9565b5b828203905092915050565b6000610d4782610d5a565b9050919050565b60008115159050919050565b600073ffffffffffffffffffffffffffffffffffffffff82169050919050565b6000819050919050565b60005b83811015610da2578082015181840152602081019050610d87565b83811115610db1576000848401525b50505050565b60006002820490506001821680610dcf57607f821691505b60208210811415610de357610de2610e18565b5b50919050565b7f4e487b7100000000000000000000000000000000000000000000000000000000600052601160045260246000fd5b7f4e487b7100000000000000000000000000000000000000000000000000000000600052602260045260246000fd5b6000601f19601f8301169050919050565b610e6181610d3c565b8114610e6c57600080fd5b50565b610e7881610d7a565b8114610e8357600080fd5b5056fea26469706673582212204d32f86232c51e90f202616b4782f19e29a56d72b700a9ae9558620485e642d164736f6c63430008000033",
  "immutableReferences": {},
  "source": "pragma solidity 0.8.0;\n//SPDX-License-Identifier: MIT\n\ncontract ERC20Token {\n    string public name;\n    string public symbol;\n    uint256 public decimals;\n\n    uint256 public supply;\n    address public founder;\n\n    mapping(address => uint256) public balances;\n    mapping(address => mapping(address => uint256)) allowed;\n\n    \n    event Transfer(address indexed from, address indexed to, uint256 tokens);\n    event Approval(\n        address indexed tokenOwner,\n        address indexed spender,\n        uint256 tokens\n    );\n    \n    constructor(string memory _name, string memory _symbol, uint256 _decimals, uint256 _supply, address tokenOwner) public {\n        name = _name;\n        symbol = _symbol;\n        decimals = _decimals;\n        supply = _supply * 10**_decimals;\n        founder = tokenOwner;\n        balances[founder] = supply;\n    }\n\n    function allowance(address tokenOwner, address spender)\n        public\n        view\n        returns (uint256 remaining)\n    {\n        return allowed[tokenOwner][spender];\n    }\n\n    function approve(address spender, uint256 tokens)\n        public\n        returns (bool success)\n    {\n        require(balances[msg.sender] >= tokens,\"Not enough balance\");\n        require(tokens > 0,\"Tokens <= 0\");\n        allowed[msg.sender][spender] = tokens;\n        emit Approval(msg.sender, spender, tokens);\n        return true;\n    }\n\n    function transferFrom(address from, address to, uint256 tokens)\n        public\n        returns (bool success)\n    {\n        require(balances[from] >= tokens,\"Not enough balance\");\n        balances[from] -= tokens;\n        balances[to] += tokens;\n        emit Transfer(from, to, tokens);\n        return true;\n    }\n\n    function totalSupply() public view returns (uint256) {\n        return supply;\n    }\n\n    function balanceOf(address tokenOwner)\n        public\n        view\n        returns (uint256 balance)\n    {\n        return balances[tokenOwner];\n    }\n\n    function transfer(address to, uint256 tokens)\n        public\n        returns (bool success)\n    {\n        require(tokens > 0, \"token <= 0 \");\n        balances[to] += tokens;\n        balances[msg.sender] -= tokens;\n        emit Transfer(msg.sender, to, tokens);\n        return true;\n    }\n}",
  "sourcePath": "/home/einsfar/work/my/ww/contracts/ERC20Token.sol",
  "compiler": {
    "name": "solc",
    "version": "0.8.0+commit.c7dfd78e.Emscripten.clang"
  },
  "schemaVersion": "3.4.1",
  "updatedAt": "2021-09-18T14:24:01.688Z",
  "devdoc": {
    "kind": "dev",
    "methods": {},
    "version": 1
  },
  "userdoc": {
    "kind": "user",
    "methods": {},
    "version": 1
  }
}